:100000000C9434000C9446000C9446000C9446006A
:100010000C9446000C9446000C9446000C94460048
:100020000C9446000C9446000C9446000C94460038
:100030000C9446000C9420010C9446000C9446004D
:100040000C94D6000C9446000C9446000C94460088
:100050000C9446000C9446000C9446000C94460008
:100060000C9446000C94460011241FBECFEFD8E03C
:10007000DEBFCDBF21E0A0E0B1E001C01D92A33200
:10008000B207E1F70E9433010C9405020C940000C2
:100090008091220181112DC080E2809380008091A7
:1000A0002101882319F110922101E9E0F1E080811A
:1000B0008EBD0DB407FEFDCF81818EBD0DB407FE50
:1000C000FDCF82818EBD0DB407FEFDCF339681E05A
:1000D000E132F80761F781E08093220190EA909382
:1000E0008000B09A80936F0080E008952D9A2D983B
:1000F000DCCF81E008953FB7F8948091050190919D
:100100000601A0910701B091080126B5A89B05C082
:100110002F3F19F00196A11DB11D3FBFBA2FA92F86
:10012000982F8827BC01CD01620F711D811D911D83
:1001300042E0660F771F881F991F4A95D1F70895EF
:100140008F929F92AF92BF92CF92DF92EF92FF92E7
:100150000E947B004B015C0188EEC82E83E0D82E04
:10016000E12CF12C0E947B00681979098A099B090E
:10017000683E734081059105A8F321E0C21AD108B9
:10018000E108F10888EE880E83E0981EA11CB11CDE
:10019000C114D104E104F10429F7FF90EF90DF903E
:1001A000CF90BF90AF909F908F9008951F920F9225
:1001B0000FB60F9211242F933F938F939F93AF937A
:1001C000BF938091010190910201A0910301B09130
:1001D00004013091000123E0230F2D3758F50196DB
:1001E000A11DB11D20930001809301019093020194
:1001F000A0930301B0930401809105019091060141
:10020000A0910701B09108010196A11DB11D809335
:10021000050190930601A0930701B0930801BF91D7
:10022000AF919F918F913F912F910F900FBE0F90A3
:100230001F90189526E8230F0296A11DB11DD2CF5D
:100240001F920F920FB60F9211248F9380E280932A
:10025000800010926F00109222018F910F900FBEBC
:100260000F901F901895789484B5826084BD84B5F2
:10027000816084BD85B5826085BD85B5816085BDA1
:1002800080916E00816080936E0010928100809159
:1002900081008260809381008091810081608093E1
:1002A0008100809180008160809380008091B10006
:1002B00084608093B1008091B00081608093B00031
:1002C00080917A00846080937A0080917A008260C5
:1002D00080937A0080917A00816080937A00809187
:1002E0007A00806880937A001092C100219A229A45
:1002F000539A2A9A239A259A229A2D9881E08DBDA5
:1003000080E58CBDC9E0D1E0188219821A8223965B
:1003100081E0C132D807C1F70E94480080E2809393
:10032000800010926F0010922201299A29988093E0
:10033000800080E18093810081E090E090938900CB
:100340008093880082E090E090938B0080938A00F5
:1003500080E090E2909387008093860083E2809310
:10036000B00088E08093B1001092B40083E08093E5
:10037000B3008091B10081608093B10080918100D1
:100380008160809381000E944800FF24FA9423E05A
:10039000E22E30E8D32E00E010E080911F018F6044
:1003A00080931F01F09220010E9448000E94A0004B
:1003B0008FE08E9DF0011124F695E795E75FFE4FE3
:1003C00080FF1EC09081907F986090831182815041
:1003D00080F70E9448000E94A000E9E0F1E010824E
:1003E000118212823396CE17DF07C9F70E944800A8
:1003F0000E94A0000115110581F20E940000CDCFDE
:0E040000D08291819F709183E2CFF894FFCF5C
:00000001FF
